{
  "contractName": "CrudManager",
  "abi": [
    {
      "inputs": [],
      "name": "nextId",
      "outputs": [
        {
          "internalType": "uint256",
          "name": "",
          "type": "uint256"
        }
      ],
      "stateMutability": "view",
      "type": "function",
      "constant": true
    },
    {
      "inputs": [
        {
          "internalType": "uint256",
          "name": "",
          "type": "uint256"
        }
      ],
      "name": "users",
      "outputs": [
        {
          "internalType": "uint256",
          "name": "id",
          "type": "uint256"
        },
        {
          "internalType": "string",
          "name": "name",
          "type": "string"
        }
      ],
      "stateMutability": "view",
      "type": "function",
      "constant": true
    },
    {
      "inputs": [
        {
          "internalType": "string",
          "name": "name",
          "type": "string"
        }
      ],
      "name": "createUser",
      "outputs": [],
      "stateMutability": "nonpayable",
      "type": "function"
    },
    {
      "inputs": [
        {
          "internalType": "uint256",
          "name": "id",
          "type": "uint256"
        }
      ],
      "name": "readUser",
      "outputs": [
        {
          "internalType": "uint256",
          "name": "",
          "type": "uint256"
        },
        {
          "internalType": "string",
          "name": "",
          "type": "string"
        }
      ],
      "stateMutability": "view",
      "type": "function",
      "constant": true
    },
    {
      "inputs": [
        {
          "internalType": "uint256",
          "name": "id",
          "type": "uint256"
        },
        {
          "internalType": "string",
          "name": "name",
          "type": "string"
        }
      ],
      "name": "updateUser",
      "outputs": [],
      "stateMutability": "nonpayable",
      "type": "function"
    },
    {
      "inputs": [
        {
          "internalType": "uint256",
          "name": "id",
          "type": "uint256"
        }
      ],
      "name": "deleteUser",
      "outputs": [],
      "stateMutability": "nonpayable",
      "type": "function"
    }
  ],
  "bytecode": "0x60806040526001805534801561001457600080fd5b50610a7b806100246000396000f3fe608060405234801561001057600080fd5b50600436106100625760003560e01c80630d70e5d014610067578063365b98b21461009857806338f14845146100c9578063507ffba5146100e557806361b8ce8c14610101578063d85340e71461011f575b600080fd5b610081600480360381019061007c91906105d7565b61013b565b60405161008f9291906106ac565b60405180910390f35b6100b260048036038101906100ad91906105d7565b61022d565b6040516100c09291906106ac565b60405180910390f35b6100e360048036038101906100de91906105d7565b6102e9565b005b6100ff60048036038101906100fa9190610811565b610337565b005b6101096103bd565b604051610116919061085a565b60405180910390f35b61013960048036038101906101349190610875565b6103c3565b005b60006060600061014a8461040f565b9050600081815481106101605761015f6108d1565b5b90600052602060002090600202016000015460008281548110610186576101856108d1565b5b90600052602060002090600202016001018080546101a39061092f565b80601f01602080910402602001604051908101604052809291908181526020018280546101cf9061092f565b801561021c5780601f106101f15761010080835404028352916020019161021c565b820191906000526020600020905b8154815290600101906020018083116101ff57829003601f168201915b505050505090509250925050915091565b6000818154811061023d57600080fd5b90600052602060002090600202016000915090508060000154908060010180546102669061092f565b80601f01602080910402602001604051908101604052809291908181526020018280546102929061092f565b80156102df5780601f106102b4576101008083540402835291602001916102df565b820191906000526020600020905b8154815290600101906020018083116102c257829003601f168201915b5050505050905082565b60006102f48261040f565b90506000818154811061030a576103096108d1565b5b906000526020600020906002020160008082016000905560018201600061033191906104aa565b50505050565b60006040518060400160405280600154815260200183815250908060018154018082558091505060019003906000526020600020906002020160009091909190915060008201518160000155602082015181600101908051906020019061039f9291906104ea565b505050600160008154809291906103b590610990565b919050555050565b60015481565b60006103ce8361040f565b905081600082815481106103e5576103e46108d1565b5b906000526020600020906002020160010190805190602001906104099291906104ea565b50505050565b6000805b600080549050811015610469578260008281548110610435576104346108d1565b5b906000526020600020906002020160000154141561045657809150506104a5565b808061046190610990565b915050610413565b506040517f08c379a000000000000000000000000000000000000000000000000000000000815260040161049c90610a25565b60405180910390fd5b919050565b5080546104b69061092f565b6000825580601f106104c857506104e7565b601f0160209004906000526020600020908101906104e69190610570565b5b50565b8280546104f69061092f565b90600052602060002090601f016020900481019282610518576000855561055f565b82601f1061053157805160ff191683800117855561055f565b8280016001018555821561055f579182015b8281111561055e578251825591602001919060010190610543565b5b50905061056c9190610570565b5090565b5b80821115610589576000816000905550600101610571565b5090565b6000604051905090565b600080fd5b600080fd5b6000819050919050565b6105b4816105a1565b81146105bf57600080fd5b50565b6000813590506105d1816105ab565b92915050565b6000602082840312156105ed576105ec610597565b5b60006105fb848285016105c2565b91505092915050565b61060d816105a1565b82525050565b600081519050919050565b600082825260208201905092915050565b60005b8381101561064d578082015181840152602081019050610632565b8381111561065c576000848401525b50505050565b6000601f19601f8301169050919050565b600061067e82610613565b610688818561061e565b935061069881856020860161062f565b6106a181610662565b840191505092915050565b60006040820190506106c16000830185610604565b81810360208301526106d38184610673565b90509392505050565b600080fd5b600080fd5b7f4e487b7100000000000000000000000000000000000000000000000000000000600052604160045260246000fd5b61071e82610662565b810181811067ffffffffffffffff8211171561073d5761073c6106e6565b5b80604052505050565b600061075061058d565b905061075c8282610715565b919050565b600067ffffffffffffffff82111561077c5761077b6106e6565b5b61078582610662565b9050602081019050919050565b82818337600083830152505050565b60006107b46107af84610761565b610746565b9050828152602081018484840111156107d0576107cf6106e1565b5b6107db848285610792565b509392505050565b600082601f8301126107f8576107f76106dc565b5b81356108088482602086016107a1565b91505092915050565b60006020828403121561082757610826610597565b5b600082013567ffffffffffffffff8111156108455761084461059c565b5b610851848285016107e3565b91505092915050565b600060208201905061086f6000830184610604565b92915050565b6000806040838503121561088c5761088b610597565b5b600061089a858286016105c2565b925050602083013567ffffffffffffffff8111156108bb576108ba61059c565b5b6108c7858286016107e3565b9150509250929050565b7f4e487b7100000000000000000000000000000000000000000000000000000000600052603260045260246000fd5b7f4e487b7100000000000000000000000000000000000000000000000000000000600052602260045260246000fd5b6000600282049050600182168061094757607f821691505b6020821081141561095b5761095a610900565b5b50919050565b7f4e487b7100000000000000000000000000000000000000000000000000000000600052601160045260246000fd5b600061099b826105a1565b91507fffffffffffffffffffffffffffffffffffffffffffffffffffffffffffffffff8214156109ce576109cd610961565b5b600182019050919050565b7f5573657220646f6573206e6f7420657869737473000000000000000000000000600082015250565b6000610a0f60148361061e565b9150610a1a826109d9565b602082019050919050565b60006020820190508181036000830152610a3e81610a02565b905091905056fea264697066735822122049de402d70005705455b03841cf85095f5bcb4b8fa7340baa265daa1f6b5412264736f6c634300080b0033",
  "immutableReferences": {},
  "source": "// SPDX-License-Identifier: MIT\npragma solidity >=0.4.22 <0.9.0;\n\ncontract CrudManager {\n  struct User {\n    uint id;\n    string name;\n  }\n  User[] public users;\n  uint public nextId = 1;\n\n  function createUser(string memory name) public {\n    users.push(User(nextId, name));\n    nextId++;\n  }\n\n  function readUser(uint id) view public returns(uint, string memory) {\n    uint i = findUser(id);\n    return (users[i].id, users[i].name);\n  }\n\n  function updateUser(uint id, string memory name) public {\n    uint i = findUser(id);\n    users[i].name = name;\n  }\n\n  function deleteUser(uint id) public {\n    uint i = findUser(id);\n    delete users[i];\n  }\n\n  function findUser(uint id) view internal returns(uint) {\n    for(uint i; i < users.length; i++) {\n      if(users[i].id == id) {\n        return i;\n      }\n    }\n    revert('User does not exists');\n  }\n}\n",
  "sourcePath": "/var/www/html/dapp30/crud/contracts/CrudManager.sol",
  "compiler": {
    "name": "solc",
    "version": "0.8.11+commit.d7f03943.Emscripten.clang"
  },
  "schemaVersion": "3.4.4",
  "updatedAt": "2022-04-26T11:31:29.706Z",
  "networkType": "ethereum",
  "devdoc": {
    "kind": "dev",
    "methods": {},
    "version": 1
  },
  "userdoc": {
    "kind": "user",
    "methods": {},
    "version": 1
  }
}